:100000000C9485000C94A2000C94A2000C94A20005
:100010000C94A2000C94A2000C94A2000C94A200D8
:100020000C94A2000C94A2000C94A2000C94A200C8
:100030000C94A2000C94A2000C94D7000C94A20083
:100040000C94A2000C94A2000C944D010C94A200FC
:100050000C94A2000C94A2000C94A2000C94A20098
:100060000C94A2000C94A20048454C4C4F20574FD2
:10007000524C440D0A00256C752000303132333467
:100080003536373839414243444546006465627528
:10009000673A2000717565756564206D65737361DD
:1000A00067653A2025630D0A0071756575652E63D5
:1000B0006F756E743D25640D0A0071756575652E4A
:1000C000636F756E743D25640D0A00717565756505
:1000D0005F696E69742E2E2E0D0A00636C6F636B60
:1000E0005F696E69742E2E2E0D0A00636F6E66694D
:1000F000675F696E69742E2E2E0D0A002573002528
:1001000073006D61696E3A20000011241FBECFEFAD
:10011000D8E0DEBFCDBF21E0A6E0B1E001C01D9276
:10012000A833B207E1F711E0A0E0B1E0E4E0F4E1C8
:1001300002C005900D92A630B107D9F70E940E05B6
:100140000C94000A0C94000084B5826084BD8DE795
:1001500087BD85B5836085BD82E080936E0008957C
:1001600060910B0170910C0180910D0190910E0135
:1001700008950F931F9300910B0110910C01209192
:100180000D0130910E01600F711F821F931F0091AE
:100190000B0110910C0120910D0130910E0160179F
:1001A00071078207930798F71F910F9108951F9287
:1001B0000F920FB60F9211248F939F93AF93BF931B
:1001C00080910B0190910C01A0910D01B0910E0155
:1001D0000196A11DB11D80930B0190930C01A0937A
:1001E0000D01B0930E01BF91AF919F918F910F9030
:1001F0000FBE0F901F90189580910B0190910C01EC
:10020000A0910D01B0910E010196A11DB11D809329
:100210000B0190930C01A0930D01B0930E01089572
:1002200010920F01109216011092150110921401F4
:1002300010921001109211011092120110921301EC
:1002400010921D0110921C0110921B0110921701B7
:10025000109218011092190110921A010895089530
:1002600008951092C50023E32093C400E1ECF0E070
:10027000208120682083208128612083E2ECF0E047
:10028000208126602083909321018093200160E0EB
:1002900070E085E991E00C9497061F920F920FB6DB
:1002A0000F9211242F933F934F935F936F937F93FC
:1002B0008F939F93AF93BF93EF93FF938091C6006B
:1002C000E0912001F0912101309709F00995FF910B
:1002D000EF91BF91AF919F918F917F916F915F91BE
:1002E0004F913F912F910F900FBE0F901F90189537
:1002F0009093210180932001089590931F01809392
:100300001E010895FC018191882339F09091C0006D
:1003100095FFFCCF8093C600F6CF08959091C00062
:1003200095FFFCCF8093C6000895CF93C82F0E94FD
:100330008E01E0911E01F0911F01309711F08C2F7A
:10034000099580E090E0CF910895E82FE295EF7055
:10035000F0E0E558FF4FE4919091C00095FFFCCF8D
:10036000E093C6008F70E82FF0E0E558FF4FE4916E
:100370008091C00085FFFCCFE093C6000895EF9206
:10038000FF920F931F93CF93DF938C017B01EC01BE
:10039000CE01801B910B8E159F053CF489910E9424
:1003A000A50180E20E948E01F3CF8DE00E948E01B4
:1003B0008AE0DF91CF911F910F91FF90EF900C9405
:1003C0008E010F931F93CF93DF93CDB7DEB70F81CD
:1003D000188501151105D9F080910B0190910C0140
:1003E000A0910D01B0910E01BF93AF939F938F9396
:1003F00086E790E09F938F930E94E2061F930F93EE
:100400000E94E2060FB6F894DEBF0FBECDBFAE016C
:10041000455F5F4F69857A85809134019091350100
:100420000E942607DF91CF911F910F91089588E6D2
:1004300090E09F938F938CE890E09F938F930E941E
:10044000E1010F900F900F900F9093E48091C00006
:1004500085FD03C09093C600F9CF2FEF84E39CE0A5
:10046000215080409040E1F700C0000080E580937B
:10047000C6002FEF84E39CE0215080409040E1F7DC
:1004800000C0000088E48093C6002FEF84E39CE066
:10049000215080409040E1F700C000000895FC0129
:1004A0001582148217821682138212821186108698
:1004B000138612860895FC01718360830C944F02A9
:1004C000CF92DF92EF92FF921F93CF93DF9300D0F2
:1004D00000D0CDB7DEB77C01DC012D913C911197A6
:1004E0002115310559F01A968D919C911B970A960A
:1004F000840F951F2817390708F465C0CA010696AE
:100500004B835C8369837A830E9453054B815C81B2
:1005100069817A81009709F458C0F70124813581F7
:10052000232B69F4958384839783868321E030E0CD
:100530003383228351874087E0E0F0E01EC0D7017B
:100540000680F781E02D9383828317969C938E9388
:10055000169712962D913C9113972F5F3F4F13964C
:100560003C932E93129718962D913C911997240F36
:10057000351F19963C932E931897D7011296CD905C
:10058000DC9013971AE01C9D90011D9D300D1124E5
:100590001896CD90DC9019972C0D3D1D1B963C9321
:1005A0002E931A97DC011196FC93EE9313961C92EE
:1005B0001E92129715965C934E93149706960E947E
:1005C00087068FEF03C082E001C081E00F900F909B
:1005D0000F900F90DF91CF911F91FF90EF90DF90E0
:1005E000CF900895CF92DF92EF92FF920F931F93D7
:1005F000CF93DF93EC017B010C811D810115110567
:1006000009F44BC0D8011496CD90DC901597C60123
:100610000E945305F70191838083EF2809F43FC0BE
:10062000A601B8016A5F7F4F0E948706D801129623
:10063000ED91FC911397309749F41D821C821F8223
:100640001E821B821A821986188614C0FD83EC83D1
:100650008A819B8101979B838A8388859985D801AC
:1006600014962D913C911597821B930B998788873F
:10067000118210822A813B814AE0429FC001439F40
:10068000900D112428853985820F931F9B878A87B7
:10069000C8010E94EB058FEF03C083E001C081E039
:1006A000DF91CF911F910F91FF90EF90DF90CF904E
:1006B0000895CF92DF92EF92FF920F931F93CF9303
:1006C000DF937B016A018901FC0122813381232BA5
:1006D00029F4F8011182108283E017C0FC01C48163
:1006E000D581209789F0A601B701CE0106960E9418
:1006F0007A06811105C0F801D183C0838FEF05C050
:100700000A80DB81C02DEDCF84E0DF91CF911F9176
:100710000F91FF90EF90DF90CF900895CF93DF93EC
:10072000EC01CB012A813B812115310509F442C03E
:100730002130310531F40E94EB05CE010E944F02B9
:1007400037C0DB01ED91FC91119712964D915C91B0
:100750001397309719F05383428302C05D834C8313
:10076000DC0112964D915C9113974115510521F0D2
:10077000DA01ED93FC9302C0FF83EE83B90161506F
:1007800071097B836A8328853985FC014481558101
:10079000241B350B39872887EAE0E69FA001E79FF5
:1007A000500D1124420F531F5B874A870E94EB05AF
:1007B0008FEF01C083E0DF91CF910895DC011496A3
:1007C000ED91FC911597309739F084819581FB016B
:1007D000918380838FEF089583E008950F931F9393
:1007E000CF93DF93EC01EC81FD81309739F00281EA
:1007F0001381CF010E94EB05F801F7CFCE010E94D3
:100800004F028FEFDF91CF911F910F910895809349
:100810000A0108950F931F93CF93DF93182F092F89
:1008200083E090E00E945305EC01009791F1E12FE5
:10083000F02FDF010D900020E9F7AD014E1B5F0B9B
:1008400060E070E00E9490060F931F938FEF90E09E
:100850009F938F93DF93CF930E940407DF93CF93EF
:100860008CEF90E09F938F9382E091E09F938F9322
:100870000E94E1018DB79EB70C960FB6F8949EBF0B
:100880000FBE8DBFCE01DF91CF911F910F910C94C0
:10089000EB05DF91CF911F910F910895CF93DF93D7
:1008A0001F92CDB7DEB7898341E050E0BE016F5F94
:1008B0007F4F82E291E00E9460020F90DF91CF9122
:1008C0000895CF92DF92EF92FF926B017C010E941C
:1008D000B0006C0D7D1D8E1D9F1D609306017093F1
:1008E00007018093080190930901FF90EF90DF903A
:1008F000CF9008950F931F930E94B00000910601BE
:1009000010910701209108013091090160177107CA
:100910008207930760F085B190E2892785B968EE78
:1009200073E080E090E00E94610481E001C080E01B
:100930001F910F9108950F931F93CF93DF930E9400
:100940007A04882331F064EF71E080E090E00E9447
:10095000610480910A01882339F180910A018D3068
:1009600021F080910A018A30C9F4809125018F938A
:10097000809124018F938AEB90E09F938F9382E084
:1009800091E09F938F930E94E10110920A010F90D2
:100990000F900F900F900F900F903BC080910A0125
:1009A0000E944E0410920A01809124019091250129
:1009B000009779F19F938F9389EA90E09F938F93AB
:1009C000C2E0D1E0DF93CF930E94E10100912601C4
:1009D00010912701F80186811F928F9384E990E09E
:1009E0009F938F93DF93CF930E94E101EDB7FEB702
:1009F0003C960FB6F894FEBF0FBEEDBFB8016A5F1C
:100A00007F4F82E291E0DF91CF911F910F910C9483
:100A10008E03DF91CF911F910F910895259A87E062
:100A200094E00E9431018BEE90E09F938F93C2E09F
:100A3000D1E0DF93CF930E94E1010E9410018BED82
:100A400090E09F938F93DF93CF930E94E1010E94E8
:100A5000A4008BEC90E09F938F93DF93CF930E9441
:100A6000E10160E074E082E291E00E945B02789430
:100A70008DB79EB70C960FB6F8949EBF0FBE8DBF74
:100A80000E949B040E947A04882331F068EE73E090
:100A900080E090E00E9461048FE097E20197F1F717
:100AA00000C00000EDCFCF93DF938230910510F4AA
:100AB00082E090E0E0913001F091310120E030E0FF
:100AC000A0E0B0E0309739F14081518148175907D3
:100AD000B8F04817590771F482819381109729F073
:100AE00013969C938E9312972CC090933101809310
:100AF000300127C02115310531F04217530718F096
:100B0000A901DB0101C0EF019A01BD01DF010280F3
:100B1000F381E02DD7CF21153105F9F0281B390BD2
:100B20002430310580F48A819B816115710521F0A3
:100B3000FB019383828304C0909331018093300141
:100B4000FE01329644C0FE01E20FF31F81939193A0
:100B500022503109398328833AC020912E013091E7
:100B60002F01232B41F42091020130910301309396
:100B70002F0120932E0120910001309101012115B8
:100B8000310541F42DB73EB7409104015091050164
:100B9000241B350BE0912E01F0912F01E217F30792
:100BA000A0F42E1B3F0B2817390778F0AC014E5FDD
:100BB0005F4F2417350748F04E0F5F1F50932F01EA
:100BC00040932E018193919302C0E0E0F0E0CF01C9
:100BD000DF91CF910895CF93DF93009709F487C0F9
:100BE000FC01329713821282C0913001D091310101
:100BF000209781F420813181280F391F80912E01A7
:100C000090912F018217930779F5F0932F01E093CC
:100C10002E016DC0DE0120E030E0AE17BF0750F4BA
:100C200012964D915C9113979D014115510509F163
:100C3000DA01F3CFB383A28340815181840F951FE2
:100C40008A179B0771F48D919C911197840F951FC2
:100C500002969183808312968D919C911397938332
:100C600082832115310529F4F0933101E09330019D
:100C70003EC0D9011396FC93EE9312974D915D916E
:100C8000A40FB51FEA17FB0779F480819181840FC7
:100C9000951F0296D90111969C938E938281938120
:100CA00013969C938E931297E0E0F0E08A819B81EB
:100CB000009719F0FE01EC01F9CFCE0102962881D0
:100CC0003981820F931F20912E0130912F01281717
:100CD000390769F4309729F41092310110923001EC
:100CE00002C013821282D0932F01C0932E01DF9194
:100CF000CF910895FB01DC0104C08D910190801912
:100D000021F441505040C8F7881B990B0895FB010E
:100D1000DC0102C001900D9241505040D8F7089577
:100D2000DC0101C06D9341505040E0F708950F93EE
:100D30001F93CF93DF93EC018B01009731F4611582
:100D4000710519F480E090E038C06EE070E081E059
:100D500090E00E940709FC010097A1F380E88383DB
:100D60000115110571F01387028781E88383809153
:100D7000320190913301892B21F4F0933301E093F8
:100D800032012097C9F0D187C08783818260838335
:100D90008091340190913501892B71F4F0933501E4
:100DA000E09334018091360190913701892B21F431
:100DB000F0933701E0933601CF01DF91CF911F917E
:100DC0000F910895A0E0B0E0E8EEF6E00C94D709AA
:100DD000FE0137966191719104E311E0D8018D9184
:100DE0009C91DC0113962C911397286013962C93F9
:100DF000AF010E943507D801ED91FC912381277F37
:100E00002383E4E00C94F309AEE0B0E0EAE0F7E01D
:100E10000C94D7090D891E898EE08C831A8309836F
:100E20008FEF9FE79E838D83AE01475E5F4F6F8993
:100E3000788DCE0101960E943507EF81F885E00F8D
:100E4000F11F10822E96E4E00C94F309CF93DF9308
:100E5000EC018B8188608B83CE010E9435072B814A
:100E6000277F2B83DF91CF910895ACE0B0E0EBE3D7
:100E7000F7E00C94C9097C016B018A01FC0117821F
:100E80001682838181FFBDC1CE0101964C01F7011D
:100E90009381F60193FD859193FF81916F018823E2
:100EA00009F4ABC1853239F493FD859193FF8191AB
:100EB0006F01853229F4B70190E00E943909E7CF2C
:100EC000512C312C20E02032A0F48B3269F030F428
:100ED000803259F0833269F420612CC08D3239F0B0
:100EE000803339F4216026C02260246023C028604A
:100EF00021C027FD27C030ED380F3A3078F426FFA7
:100F000006C0FAE05F9E300D1124532E13C08AE014
:100F1000389E300D1124332E20620CC08E3221F405
:100F200026FD6BC1206406C08C3611F4206802C017
:100F3000883641F4F60193FD859193FF81916F010D
:100F40008111C1CF982F9F7D9554933028F40C5F69
:100F50001F4FFFE3F9830DC0833631F0833771F003
:100F6000833509F05BC022C0F801808189830E5F60
:100F70001F4F44244394512C540115C03801F2E012
:100F80006F0E711CF801A080B18026FF03C0652D93
:100F900070E002C06FEF7FEFC5012C870E942E0921
:100FA0002C0183012C852F77222E17C03801F2E007
:100FB0006F0E711CF801A080B18026FF03C0652D63
:100FC00070E002C06FEF7FEFC5012C870E942309FC
:100FD0002C012C852068222E830123FC1BC0832D2D
:100FE00090E048165906B0F4B70180E290E00E9404
:100FF00039093A94F4CFF50127FC859127FE8191B8
:101000005F01B70190E00E94390931103A94F1E094
:101010004F1A51084114510471F7E5C0843611F09C
:10102000893639F5F80127FF07C060817181828117
:1010300093810C5F1F4F08C060817181882777FD05
:101040008095982F0E5F1F4F2F76B22E97FF09C005
:1010500090958095709561957F4F8F4F9F4F206839
:10106000B22E2AE030E0A4010E946B09A82EA81835
:1010700044C0853729F42F7EB22E2AE030E025C007
:10108000F22FF97FBF2E8F36C1F018F4883579F032
:10109000B4C0803719F0883721F0AFC02F2F2061FE
:1010A000B22EB4FE0DC08B2D8460B82E09C024FF73
:1010B0000AC09F2F9660B92E06C028E030E005C018
:1010C00020E130E002C020E132E0F801B7FE07C0C5
:1010D00060817181828193810C5F1F4F06C06081A6
:1010E000718180E090E00E5F1F4FA4010E946B09A8
:1010F000A82EA818FB2DFF77BF2EB6FE0BC02B2DF8
:101100002E7FA51450F4B4FE0AC0B2FC08C02B2DEB
:101110002E7E05C07A2C2B2D03C07A2C01C0752C95
:1011200024FF0DC0FE01EA0DF11D8081803311F412
:10113000297E09C022FF06C07394739404C0822FD5
:10114000867809F0739423FD13C020FF06C05A2C43
:10115000731418F4530C5718732C731468F4B701F4
:1011600080E290E02C870E94390973942C85F5CF9A
:10117000731410F4371801C0312C24FF12C0B701CA
:1011800080E390E02C870E9439092C8522FF17C04C
:1011900021FF03C088E590E002C088E790E0B70136
:1011A0000CC0822F867859F021FD02C080E201C078
:1011B0008BE227FD8DE2B70190E00E943909A5146A
:1011C00038F4B70180E390E00E9439095A94F7CFD0
:1011D000AA94F401EA0DF11D8081B70190E00E940C
:1011E0003909A110F5CF332009F451CEB70180E2BF
:1011F00090E00E9439093A94F6CFF70186819781F1
:1012000002C08FEF9FEF2C96E2E10C94E5090F935B
:101210001F93CF93DF93869F8001879F100D969F2A
:10122000100D1124C8010E945305EC01009729F00C
:10123000A80160E070E00E949006CE01DF91CF919E
:101240001F910F910895FC010590615070400110AD
:10125000D8F7809590958E0F9F1F0895FC016150DF
:10126000704001900110D8F7809590958E0F9F1FC8
:1012700008950F931F93CF93DF93182F092FEB013E
:101280008B8181FD03C08FEF9FEF20C082FF10C0D4
:101290004E815F812C813D81421753077CF4E881A8
:1012A000F9819F012F5F3F4F39832883108306C048
:1012B000E885F985812F0995892B29F72E813F81B2
:1012C0002F5F3F4F3F832E83812F902FDF91CF9150
:1012D0001F910F910895FA01AA27283051F120316A
:1012E00081F1E8946F936E7F6E5F7F4F8F4F9F4FBA
:1012F000AF4FB1E03ED0B4E03CD0670F781F891FFC
:101300009A1FA11D680F791F8A1F911DA11D6A0FC9
:10131000711D811D911DA11D20D009F468943F917C
:101320002AE0269F11243019305D3193DEF6CF017B
:101330000895462F4770405D4193B3E00FD0C9F741
:10134000F6CF462F4F70405D4A3318F0495D31FDAE
:101350004052419302D0A9F7EACFB4E0A695979501
:10136000879577956795BA95C9F7009761057105D7
:1013700008959B01AC010A2E069457954795379521
:101380002795BA95C9F7620F731F841F951FA01D7B
:1013900008952F923F924F925F926F927F928F9219
:1013A0009F92AF92BF92CF92DF92EF92FF920F93F4
:1013B0001F93CF93DF93CDB7DEB7CA1BDB0B0FB6FE
:1013C000F894DEBF0FBECDBF09942A8839884888BB
:1013D0005F846E847D848C849B84AA84B984C88451
:1013E000DF80EE80FD800C811B81AA81B981CE0F48
:1013F000D11D0FB6F894DEBF0FBECDBFED0108952D
:04140000F894FFCF8E
:0614040000003801200089
:00000001FF
